BL51 BANKED LINKER/LOCATER V6.22.2.0                                                    06/10/2020  16:30:05  PAGE 1


BL51 BANKED LINKER/LOCATER V6.22.2.0, INVOKED BY:
F:\KEILSETUP\C51SETUP\C51\BIN\BL51.EXE .\Objects\main.obj TO .\Objects\太极 PRINT (.\Listings\太极.m51) RAMSIZE (256)


MEMORY MODEL: SMALL


INPUT MODULES INCLUDED:
  .\Objects\main.obj (MAIN)
  F:\KEILSETUP\C51SETUP\C51\LIB\C51S.LIB (?C_STARTUP)
  F:\KEILSETUP\C51SETUP\C51\LIB\C51S.LIB (?C_INIT)


LINK MAP OF MODULE:  .\Objects\太极 (MAIN)


            TYPE    BASE      LENGTH    RELOCATION   SEGMENT NAME
            -----------------------------------------------------

            * * * * * * *   D A T A   M E M O R Y   * * * * * * *
            REG     0000H     0008H     ABSOLUTE     "REG BANK 0"
            DATA    0008H     0010H     UNIT         ?DT?MAIN
            DATA    0018H     0002H     UNIT         _DATA_GROUP_
            IDATA   001AH     0001H     UNIT         ?STACK

            * * * * * * *   C O D E   M E M O R Y   * * * * * * *
            CODE    0000H     0003H     ABSOLUTE     
            CODE    0003H     0003H     ABSOLUTE     
                    0006H     0005H                  *** GAP ***
            CODE    000BH     0003H     ABSOLUTE     
                    000EH     0005H                  *** GAP ***
            CODE    0013H     0003H     ABSOLUTE     
                    0016H     0005H                  *** GAP ***
            CODE    001BH     0003H     ABSOLUTE     
            CODE    001EH     008CH     UNIT         ?C_C51STARTUP
            CODE    00AAH     0079H     UNIT         ?PR?DISTIME?MAIN
            CODE    0123H     005AH     UNIT         ?PR?MAIN?MAIN
            CODE    017DH     0052H     UNIT         ?PR?BUTTON2?MAIN
            CODE    01CFH     0031H     UNIT         ?PR?_WRITE_MAX7219?MAIN
            CODE    0200H     0031H     UNIT         ?PR?TIMER0?MAIN
            CODE    0231H     002EH     UNIT         ?PR?BUTTON1?MAIN
            CODE    025FH     0026H     UNIT         ?PR?_DELAY?MAIN
            CODE    0285H     0023H     UNIT         ?PR?CIRCLE?MAIN
            CODE    02A8H     001EH     UNIT         ?PR?_INIT_MAX7219?MAIN
            CODE    02C6H     001CH     UNIT         ?CO?MAIN
            CODE    02E2H     000EH     UNIT         ?C_INITSEG
            CODE    02F0H     0009H     UNIT         ?PR?BUTTON0?MAIN



OVERLAY MAP OF MODULE:   .\Objects\太极 (MAIN)


SEGMENT                           DATA_GROUP 
  +--> CALLED SEGMENT           START    LENGTH
-----------------------------------------------
?C_C51STARTUP                   -----    -----
  +--> ?PR?MAIN?MAIN
BL51 BANKED LINKER/LOCATER V6.22.2.0                                                  06/10/2020  16:30:05  PAGE 2


  +--> ?C_INITSEG

?PR?MAIN?MAIN                   -----    -----
  +--> ?PR?_INIT_MAX7219?MAIN
  +--> ?CO?MAIN
  +--> ?PR?CIRCLE?MAIN
  +--> ?PR?DISTIME?MAIN

?PR?_INIT_MAX7219?MAIN          0018H    0002H
  +--> ?PR?_WRITE_MAX7219?MAIN

?PR?_WRITE_MAX7219?MAIN         -----    -----
  +--> ?PR?_DELAY?MAIN

?PR?CIRCLE?MAIN                 -----    -----
  +--> ?CO?MAIN

?PR?DISTIME?MAIN                -----    -----
  +--> ?PR?_WRITE_MAX7219?MAIN



SYMBOL TABLE OF MODULE:  .\Objects\太极 (MAIN)

  VALUE           TYPE          NAME
  ----------------------------------

  -------         MODULE        MAIN
  C:0000H         SYMBOL        _ICE_DUMMY_
  D:0090H         PUBLIC        P1
  D:00A0H         PUBLIC        P2
  B:00A8H.7       PUBLIC        EA
  C:0267H         PUBLIC        _delay
  D:0008H         PUBLIC        judge
  D:0009H         PUBLIC        CS
  D:000AH         PUBLIC        flag
  B:00D0H.7       PUBLIC        CY
  B:00A0H.3       PUBLIC        LOAD
  C:0123H         PUBLIC        main
  C:01D5H         PUBLIC        _Write_MAX7219
  C:02F0H         PUBLIC        Button0
  C:0231H         PUBLIC        Button1
  C:02C6H         PUBLIC        yang
  C:017DH         PUBLIC        Button2
  C:02A8H         PUBLIC        _Init_MAX7219
  C:0200H         PUBLIC        Timer0
  D:0089H         PUBLIC        TMOD
  D:000BH         PUBLIC        MSCS
  D:0011H         PUBLIC        Fcircle
  C:02CEH         PUBLIC        eye
  B:00A8H.1       PUBLIC        ET0
  B:00A8H.3       PUBLIC        ET1
  D:0012H         PUBLIC        M
  D:008CH         PUBLIC        TH0
  D:0013H         PUBLIC        N
  B:00A8H.0       PUBLIC        EX0
  B:0088H.0       PUBLIC        IT0
BL51 BANKED LINKER/LOCATER V6.22.2.0                                                  06/10/2020  16:30:05  PAGE 3


  D:008DH         PUBLIC        TH1
  B:00A8H.2       PUBLIC        EX1
  B:0088H.2       PUBLIC        IT1
  D:008AH         PUBLIC        TL0
  D:008BH         PUBLIC        TL1
  D:0014H         PUBLIC        S
  B:00B8H.1       PUBLIC        PT0
  B:00B8H.3       PUBLIC        PT1
  B:0088H.4       PUBLIC        TR0
  B:0088H.6       PUBLIC        TR1
  B:00A0H.4       PUBLIC        CLK
  C:02D6H         PUBLIC        RGB
  B:00A0H.2       PUBLIC        DIN
  D:0015H         PUBLIC        i
  B:00A0H.0       PUBLIC        Elock
  D:0016H         PUBLIC        Delay
  C:00AAH         PUBLIC        distime
  C:0285H         PUBLIC        circle
  B:00A0H.1       PUBLIC        Llock
  -------         PROC          L?0042
  -------         ENDPROC       L?0042
  -------         PROC          _DELAY
  D:0006H         SYMBOL        num
  -------         DO            
  D:0006H         SYMBOL        x
  D:0004H         SYMBOL        y
  -------         ENDDO         
  C:0267H         LINE#         21
  C:0267H         LINE#         22
  C:0267H         LINE#         24
  C:0270H         LINE#         25
  C:0284H         LINE#         26
  -------         ENDPROC       _DELAY
  -------         PROC          L?0041
  -------         ENDPROC       L?0041
  -------         PROC          _WRITE_MAX7219
  D:0001H         SYMBOL        Addr
  D:0003H         SYMBOL        Data
  -------         DO            
  D:0002H         SYMBOL        Count
  -------         ENDDO         
  C:01D5H         LINE#         29
  C:01D9H         LINE#         30
  C:01D9H         LINE#         33
  C:01DBH         LINE#         34
  C:01DDH         LINE#         35
  C:01DDH         LINE#         36
  C:01DFH         LINE#         37
  C:01E3H         LINE#         38
  C:01E3H         LINE#         39
  C:01E3H         LINE#         40
  C:01E6H         LINE#         41
  C:01E8H         LINE#         42
  C:01ECH         LINE#         43
  C:01EEH         LINE#         44
  C:01EEH         LINE#         45
  C:01F0H         LINE#         46
BL51 BANKED LINKER/LOCATER V6.22.2.0                                                  06/10/2020  16:30:05  PAGE 4


  C:01F4H         LINE#         47
  C:01F4H         LINE#         48
  C:01F4H         LINE#         49
  C:01F7H         LINE#         50
  C:01F9H         LINE#         51
  C:01FDH         LINE#         52
  C:01FFH         LINE#         53
  -------         ENDPROC       _WRITE_MAX7219
  -------         PROC          _INIT_MAX7219
  D:0018H         SYMBOL        Light_Coding
  D:0005H         SYMBOL        SEG_Coding_Mode
  D:0019H         SYMBOL        SEG_DIG_Num
  C:02A8H         LINE#         55
  C:02ACH         LINE#         56
  C:02ACH         LINE#         58
  C:02B1H         LINE#         59
  C:02B8H         LINE#         60
  C:02BFH         LINE#         61
  -------         ENDPROC       _INIT_MAX7219
  -------         PROC          CIRCLE
  C:0285H         LINE#         64
  C:0285H         LINE#         65
  C:0285H         LINE#         66
  C:0287H         LINE#         67
  C:028FH         LINE#         68
  C:0291H         LINE#         69
  C:0293H         LINE#         70
  C:029BH         LINE#         71
  C:029DH         LINE#         72
  C:029FH         LINE#         73
  C:02A4H         LINE#         74
  C:02A7H         LINE#         75
  -------         ENDPROC       CIRCLE
  -------         PROC          DISTIME
  C:00AAH         LINE#         78
  C:00AAH         LINE#         79
  C:00AAH         LINE#         80
  C:00B1H         LINE#         81
  C:00B8H         LINE#         82
  C:00BCH         LINE#         83
  C:00BCH         LINE#         84
  C:00C3H         LINE#         85
  C:00CFH         LINE#         86
  C:00D6H         LINE#         87
  C:00E2H         LINE#         88
  C:00EFH         LINE#         89
  C:00F6H         LINE#         90
  C:00F8H         LINE#         92
  C:00F8H         LINE#         93
  C:00FFH         LINE#         94
  C:0106H         LINE#         95
  C:010DH         LINE#         96
  C:0114H         LINE#         97
  C:011BH         LINE#         98
  C:0122H         LINE#         99
  C:0122H         LINE#         100
  -------         ENDPROC       DISTIME
BL51 BANKED LINKER/LOCATER V6.22.2.0                                                  06/10/2020  16:30:05  PAGE 5


  -------         PROC          MAIN
  C:0123H         LINE#         102
  C:0123H         LINE#         103
  C:0123H         LINE#         104
  C:0126H         LINE#         112
  C:012DH         LINE#         113
  C:012FH         LINE#         114
  C:0132H         LINE#         115
  C:0135H         LINE#         116
  C:0138H         LINE#         117
  C:013AH         LINE#         118
  C:013CH         LINE#         120
  C:013EH         LINE#         121
  C:0140H         LINE#         123
  C:0142H         LINE#         124
  C:0144H         LINE#         125
  C:014DH         LINE#         127
  C:014FH         LINE#         128
  C:0151H         LINE#         129
  C:0157H         LINE#         131
  C:0159H         LINE#         132
  C:015BH         LINE#         134
  C:0162H         LINE#         135
  C:0164H         LINE#         136
  C:0166H         LINE#         137
  C:016DH         LINE#         138
  C:016FH         LINE#         139
  C:0171H         LINE#         141
  C:0171H         LINE#         142
  C:0171H         LINE#         163
  C:0175H         LINE#         164
  C:0178H         LINE#         165
  C:017BH         LINE#         166
  -------         ENDPROC       MAIN
  -------         PROC          TIMER0
  C:0200H         LINE#         169
  C:0204H         LINE#         171
  C:0207H         LINE#         172
  C:020AH         LINE#         175
  C:020CH         LINE#         176
  C:0213H         LINE#         177
  C:0213H         LINE#         178
  C:0216H         LINE#         179
  C:0218H         LINE#         180
  C:021EH         LINE#         181
  C:021EH         LINE#         182
  C:0221H         LINE#         183
  C:0223H         LINE#         184
  C:0229H         LINE#         185
  C:022CH         LINE#         186
  C:022CH         LINE#         187
  C:022CH         LINE#         189
  -------         ENDPROC       TIMER0
  -------         PROC          BUTTON0
  C:02F0H         LINE#         191
  C:02F0H         LINE#         193
  C:02F3H         LINE#         194
BL51 BANKED LINKER/LOCATER V6.22.2.0                                                  06/10/2020  16:30:05  PAGE 6


  C:02F5H         LINE#         195
  C:02F8H         LINE#         196
  -------         ENDPROC       BUTTON0
  -------         PROC          BUTTON1
  -------         DO            
  D:0007H         SYMBOL        i
  -------         ENDDO         
  C:0231H         LINE#         198
  C:023CH         LINE#         201
  C:0247H         LINE#         202
  C:0247H         LINE#         203
  C:0250H         LINE#         204
  C:0253H         LINE#         205
  C:0256H         LINE#         206
  -------         ENDPROC       BUTTON1
  -------         PROC          BUTTON2
  C:017DH         LINE#         207
  C:0183H         LINE#         209
  C:0189H         LINE#         211
  C:018DH         LINE#         212
  C:018DH         LINE#         213
  C:0190H         LINE#         214
  C:0198H         LINE#         215
  C:01A1H         LINE#         216
  C:01A9H         LINE#         217
  C:01B2H         LINE#         218
  C:01BAH         LINE#         219
  C:01C3H         LINE#         220
  C:01C5H         LINE#         222
  C:01C8H         LINE#         223
  -------         ENDPROC       BUTTON2
  -------         ENDMOD        MAIN

Program Size: data=27.0 xdata=0 code=746
LINK/LOCATE RUN COMPLETE.  0 WARNING(S),  0 ERROR(S)
