:10016E000000FF00FF007E00104824924904120890
:10017E000000E700FF0066001048248241041208C8
:10018E000000E700E70066001048208241241208B4
:10019E000000FF00E7007E0010482092492412085C
:09032900010800010901010A00AC
:0A01AE00E50893F4F5907F017E0050
:1001B800D3EF9400EE940040147D377C00ED1D7061
:0D01C800011CED4C70F7EF1F70E61E80E388
:0101D5002207
:1002C000AF087401A807088002C333D8FCF5A090DA
:1002D000016E1201AE0508E508D394074006E4F567
:0502E00008750902226F
:1002E500AF087401A807088002C333D8FCF5A090B5
:1002F50001761201AE0508E508D394074006E4F53A
:05030500087509032248
:1001D600AF087401A807088002C333D8FCF5A0E570
:1001E6000890017E1201B00508E508D39407400681
:0701F600E4F508750904227D
:1001FD00AF087401A807088002C333D8FCF5A0E549
:10020D00089001861201B00508E508D39407400651
:07021D00E4F5087509052254
:10022400AF087401A807088002C333D8FCF5A0E521
:100234000890018E1201B00508E508D39407400622
:07024400E4F508750906222C
:10024B00AF087401A807088002C333D8FCF5A0E5FA
:10025B00089001961201B00508E508D394074006F3
:07026B00E4F5087509072204
:10027200AF087401A807088002C333D8FCF5A0E5D3
:100282000890019E1201B00508E508D394074006C4
:07029200E4F50875090822DC
:10029900AF087401A807088002C333D8FCF5A0E5AC
:1002A900089001A61201B00508E508D39407400695
:0702B900E4F50875090122BC
:100109007590FFE4F5A0E50914B408005056900174
:100119002575F003A4C58325F0C5837302013D024B
:10012900014302014902014F02015502015B02012B
:10013900610201677580010202C07580020202E551
:100149007580040201D67580080201FD75801002D0
:10015900022475802002024B75804002027275806C
:05016900801202992242
:10009200E4F5A0D2AFD288D2A8E50AB4090050F99B
:1000A2009000A9F82828730200C40200C90200D1F6
:1000B2000200D90200E10200E90200F10200F902A5
:1000C200010112010980D27580011202C080CA7535
:1000D20080021202E580C27580041201D680BA75D0
:1000E20080081201FD80B275801012022480AA7568
:1000F200802012024B80A2758040120272809A7593
:070102008080120299809237
:0300030002030AEB
:10030A00C0E0C0D07580FF75A000007590FF050A97
:0F031A00E50AD394084003750A00D0D0D0E03232
:03000000020006F5
:0C000600787FE4F6D8FD75810A02004DF9
:10001200020092E493A3F8E493A34003F68001F272
:1000220008DFF48029E493A3F85407240CC8C333EF
:10003200C4540F4420C8834004F456800146F6DFBE
:10004200E4800B0102040810204080900329E47E22
:10005200019360BCA3FF543F30E509541FFEE493B3
:10006200A360010ECF54C025E060A840B8E493A37A
:10007200FAE493A3F8E493A3C8C582C8CAC583CAA5
:10008200F0A3C8C582C8CAC583CADFE9DEE780BE5D
:0103320000CA
:00000001FF
